{
  "contractName": "StakingContract",
  "abi": [
    {
      "inputs": [],
      "stateMutability": "nonpayable",
      "type": "constructor"
    },
    {
      "inputs": [
        {
          "internalType": "address",
          "name": "",
          "type": "address"
        }
      ],
      "name": "balanceOf",
      "outputs": [
        {
          "internalType": "uint256",
          "name": "",
          "type": "uint256"
        }
      ],
      "stateMutability": "view",
      "type": "function"
    },
    {
      "inputs": [
        {
          "internalType": "address",
          "name": "",
          "type": "address"
        }
      ],
      "name": "durations",
      "outputs": [
        {
          "internalType": "uint256",
          "name": "",
          "type": "uint256"
        }
      ],
      "stateMutability": "view",
      "type": "function"
    },
    {
      "inputs": [],
      "name": "owner",
      "outputs": [
        {
          "internalType": "address",
          "name": "",
          "type": "address"
        }
      ],
      "stateMutability": "view",
      "type": "function"
    },
    {
      "inputs": [],
      "name": "rewardPerToken",
      "outputs": [
        {
          "internalType": "uint256",
          "name": "",
          "type": "uint256"
        }
      ],
      "stateMutability": "view",
      "type": "function"
    },
    {
      "inputs": [
        {
          "internalType": "address",
          "name": "",
          "type": "address"
        }
      ],
      "name": "rewards",
      "outputs": [
        {
          "internalType": "uint256",
          "name": "",
          "type": "uint256"
        }
      ],
      "stateMutability": "view",
      "type": "function"
    },
    {
      "inputs": [],
      "name": "rewardsToken",
      "outputs": [
        {
          "internalType": "contract IERC20",
          "name": "",
          "type": "address"
        }
      ],
      "stateMutability": "view",
      "type": "function"
    },
    {
      "inputs": [],
      "name": "stakingToken",
      "outputs": [
        {
          "internalType": "contract IERC20",
          "name": "",
          "type": "address"
        }
      ],
      "stateMutability": "view",
      "type": "function"
    },
    {
      "inputs": [
        {
          "internalType": "uint256",
          "name": "_amount",
          "type": "uint256"
        }
      ],
      "name": "stake",
      "outputs": [],
      "stateMutability": "nonpayable",
      "type": "function"
    },
    {
      "inputs": [
        {
          "internalType": "uint256",
          "name": "_amount",
          "type": "uint256"
        }
      ],
      "name": "withdraw",
      "outputs": [],
      "stateMutability": "nonpayable",
      "type": "function"
    },
    {
      "inputs": [],
      "name": "getReward",
      "outputs": [],
      "stateMutability": "nonpayable",
      "type": "function"
    }
  ],
  "bytecode": "0x60c060405234801561001057600080fd5b50336000806101000a81548173ffffffffffffffffffffffffffffffffffffffff021916908373ffffffffffffffffffffffffffffffffffffffff16021790555073bb4cdb9cbd36b01bd1cbaebf2de08d9173bc095c73ffffffffffffffffffffffffffffffffffffffff1660808173ffffffffffffffffffffffffffffffffffffffff1660601b8152505073c160f01f157bd24b4673cff1c1b088bc8ef946ca73ffffffffffffffffffffffffffffffffffffffff1660a08173ffffffffffffffffffffffffffffffffffffffff1660601b8152505060805160601c60a05160601c610e99610127600039600081816105e601526109050152600081816103c5015281816106b001526108340152610e996000f3fe608060405234801561001057600080fd5b506004361061009e5760003560e01c80638da5cb5b116100665780638da5cb5b14610147578063a694fc3a14610165578063af6bd8ce14610181578063cd3daf9d146101b1578063d1af0c7d146101cf5761009e565b80630700037d146100a35780632e1a7d4d146100d35780633d18b912146100ef57806370a08231146100f957806372f702f314610129575b600080fd5b6100bd60048036038101906100b89190610a15565b6101ed565b6040516100ca9190610c73565b60405180910390f35b6100ed60048036038101906100e89190610a67565b610205565b005b6100f7610475565b005b610113600480360381019061010e9190610a15565b610696565b6040516101209190610c73565b60405180910390f35b6101316106ae565b60405161013e9190610bf8565b60405180910390f35b61014f6106d2565b60405161015c9190610b7d565b60405180910390f35b61017f600480360381019061017a9190610a67565b6106f6565b005b61019b60048036038101906101969190610a15565b6108e6565b6040516101a89190610c73565b60405180910390f35b6101b96108fe565b6040516101c69190610c73565b60405180910390f35b6101d7610903565b6040516101e49190610bf8565b60405180910390f35b60036020528060005260406000206000915090505481565b3361020f81610927565b600360008373ffffffffffffffffffffffffffffffffffffffff1673ffffffffffffffffffffffffffffffffffffffff168152602001908152602001600020600082825461025d9190610c9f565b9250508190555042600260008373ffffffffffffffffffffffffffffffffffffffff1673ffffffffffffffffffffffffffffffffffffffff16815260200190815260200160002081905550600082116102eb576040517f08c379a00000000000000000000000000000000000000000000000000000000081526004016102e290610c53565b60405180910390fd5b6000600160003373ffffffffffffffffffffffffffffffffffffffff1673ffffffffffffffffffffffffffffffffffffffff168152602001908152602001600020541161036d576040517f08c379a000000000000000000000000000000000000000000000000000000000815260040161036490610c13565b60405180910390fd5b81600160003373ffffffffffffffffffffffffffffffffffffffff1673ffffffffffffffffffffffffffffffffffffffff16815260200190815260200160002060008282546103bc9190610d4f565b925050819055507f000000000000000000000000000000000000000000000000000000000000000073ffffffffffffffffffffffffffffffffffffffff1663a9059cbb33846040518363ffffffff1660e01b815260040161041e929190610bcf565b602060405180830381600087803b15801561043857600080fd5b505af115801561044c573d6000803e3d6000fd5b505050506040513d601f19601f820116820180604052508101906104709190610a3e565b505050565b3361047f81610927565b600360008373ffffffffffffffffffffffffffffffffffffffff1673ffffffffffffffffffffffffffffffffffffffff16815260200190815260200160002060008282546104cd9190610c9f565b9250508190555042600260008373ffffffffffffffffffffffffffffffffffffffff1673ffffffffffffffffffffffffffffffffffffffff168152602001908152602001600020819055506000600360003373ffffffffffffffffffffffffffffffffffffffff1673ffffffffffffffffffffffffffffffffffffffff1681526020019081526020016000205490506000811161059f576040517f08c379a000000000000000000000000000000000000000000000000000000000815260040161059690610c33565b60405180910390fd5b6000600360003373ffffffffffffffffffffffffffffffffffffffff1673ffffffffffffffffffffffffffffffffffffffff168152602001908152602001600020819055507f000000000000000000000000000000000000000000000000000000000000000073ffffffffffffffffffffffffffffffffffffffff1663a9059cbb33836040518363ffffffff1660e01b815260040161063f929190610bcf565b602060405180830381600087803b15801561065957600080fd5b505af115801561066d573d6000803e3d6000fd5b505050506040513d601f19601f820116820180604052508101906106919190610a3e565b505050565b60016020528060005260406000206000915090505481565b7f000000000000000000000000000000000000000000000000000000000000000081565b60008054906101000a900473ffffffffffffffffffffffffffffffffffffffff1681565b3361070081610927565b600360008373ffffffffffffffffffffffffffffffffffffffff1673ffffffffffffffffffffffffffffffffffffffff168152602001908152602001600020600082825461074e9190610c9f565b9250508190555042600260008373ffffffffffffffffffffffffffffffffffffffff1673ffffffffffffffffffffffffffffffffffffffff16815260200190815260200160002081905550600082116107dc576040517f08c379a00000000000000000000000000000000000000000000000000000000081526004016107d390610c53565b60405180910390fd5b81600160003373ffffffffffffffffffffffffffffffffffffffff1673ffffffffffffffffffffffffffffffffffffffff168152602001908152602001600020600082825461082b9190610c9f565b925050819055507f000000000000000000000000000000000000000000000000000000000000000073ffffffffffffffffffffffffffffffffffffffff166323b872dd3330856040518463ffffffff1660e01b815260040161088f93929190610b98565b602060405180830381600087803b1580156108a957600080fd5b505af11580156108bd573d6000803e3d6000fd5b505050506040513d601f19601f820116820180604052508101906108e19190610a3e565b505050565b60026020528060005260406000206000915090505481565b600181565b7f000000000000000000000000000000000000000000000000000000000000000081565b600080600260008473ffffffffffffffffffffffffffffffffffffffff1673ffffffffffffffffffffffffffffffffffffffff16815260200190815260200160002054426109759190610d4f565b9050600181600160008673ffffffffffffffffffffffffffffffffffffffff1673ffffffffffffffffffffffffffffffffffffffff168152602001908152602001600020546109c49190610cf5565b6109ce9190610cf5565b915050919050565b6000813590506109e581610e1e565b92915050565b6000815190506109fa81610e35565b92915050565b600081359050610a0f81610e4c565b92915050565b600060208284031215610a2757600080fd5b6000610a35848285016109d6565b91505092915050565b600060208284031215610a5057600080fd5b6000610a5e848285016109eb565b91505092915050565b600060208284031215610a7957600080fd5b6000610a8784828501610a00565b91505092915050565b610a9981610d83565b82525050565b610aa881610dcb565b82525050565b6000610abb601083610c8e565b91507f596f75722062616c616e6365203d2030000000000000000000000000000000006000830152602082019050919050565b6000610afb601583610c8e565b91507f596f7520646f6e742068617665207265776172647300000000000000000000006000830152602082019050919050565b6000610b3b600a83610c8e565b91507f616d6f756e74203d2030000000000000000000000000000000000000000000006000830152602082019050919050565b610b7781610dc1565b82525050565b6000602082019050610b926000830184610a90565b92915050565b6000606082019050610bad6000830186610a90565b610bba6020830185610a90565b610bc76040830184610b6e565b949350505050565b6000604082019050610be46000830185610a90565b610bf16020830184610b6e565b9392505050565b6000602082019050610c0d6000830184610a9f565b92915050565b60006020820190508181036000830152610c2c81610aae565b9050919050565b60006020820190508181036000830152610c4c81610aee565b9050919050565b60006020820190508181036000830152610c6c81610b2e565b9050919050565b6000602082019050610c886000830184610b6e565b92915050565b600082825260208201905092915050565b6000610caa82610dc1565b9150610cb583610dc1565b9250827fffffffffffffffffffffffffffffffffffffffffffffffffffffffffffffffff03821115610cea57610ce9610def565b5b828201905092915050565b6000610d0082610dc1565b9150610d0b83610dc1565b9250817fffffffffffffffffffffffffffffffffffffffffffffffffffffffffffffffff0483118215151615610d4457610d43610def565b5b828202905092915050565b6000610d5a82610dc1565b9150610d6583610dc1565b925082821015610d7857610d77610def565b5b828203905092915050565b6000610d8e82610da1565b9050919050565b60008115159050919050565b600073ffffffffffffffffffffffffffffffffffffffff82169050919050565b6000819050919050565b6000610dd682610ddd565b9050919050565b6000610de882610da1565b9050919050565b7f4e487b7100000000000000000000000000000000000000000000000000000000600052601160045260246000fd5b610e2781610d83565b8114610e3257600080fd5b50565b610e3e81610d95565b8114610e4957600080fd5b50565b610e5581610dc1565b8114610e6057600080fd5b5056fea26469706673582212209c2ece34a7c3b5967880e7b3d5fc24a6ee209c64f2297cb66f04991ec38ca80c64736f6c63430008000033",
  "immutableReferences": {
    "37": [
      {
        "length": 32,
        "start": 965
      },
      {
        "length": 32,
        "start": 1712
      },
      {
        "length": 32,
        "start": 2100
      }
    ],
    "40": [
      {
        "length": 32,
        "start": 1510
      },
      {
        "length": 32,
        "start": 2309
      }
    ]
  },
  "source": "// SPDX-License-Identifier: MIT\npragma solidity ^0.8.0;\n\n\ncontract StakingContract {\n    IERC20 public immutable stakingToken;\n    IERC20 public immutable rewardsToken;\n\n    address public owner;\n\n    uint constant public rewardPerToken = 1;\n\n    mapping(address => uint) public balanceOf;\n\n    mapping(address => uint) public durations;\n\n    mapping(address => uint) public rewards;\n\n    constructor() {\n        owner = msg.sender;\n        stakingToken = IERC20(0xbb4CdB9CBd36B01bD1cBaEBF2De08d9173bc095c); //wBNB\n        rewardsToken = IERC20(0xC160F01f157Bd24B4673CfF1C1B088bC8eF946cA); //KakashiToken\n    }\n\n    modifier updateReward(address _account) {\n        rewards[_account] += calculateReward(_account);\n        durations[_account] = block.timestamp;\n        _;\n    }\n\n    function calculateReward(address _account) view internal returns(uint){\n        uint duration = block.timestamp - durations[_account];\n        return balanceOf[_account] * duration * rewardPerToken;\n    }\n\n    function stake(uint _amount) external updateReward(msg.sender){\n        require(_amount > 0, \"amount = 0\");\n        balanceOf[msg.sender] += _amount;\n        stakingToken.transferFrom(msg.sender, address(this), _amount);\n    }\n\n    function withdraw(uint _amount) external updateReward(msg.sender){\n        require(_amount > 0, \"amount = 0\");\n        require(balanceOf[msg.sender] > 0, \"Your balance = 0\");\n        balanceOf[msg.sender] -= _amount;\n        stakingToken.transfer(msg.sender, _amount);\n    }\n\n    function getReward() external updateReward(msg.sender){\n        uint reward = rewards[msg.sender];\n        require(reward > 0, \"You dont have rewards\");\n        rewards[msg.sender] = 0;\n        rewardsToken.transfer(msg.sender, reward);\n    }\n}\n\n\ninterface IERC20 {\n    function totalSupply() external view returns (uint);\n\n    function balanceOf(address account) external view returns (uint);\n\n    function transfer(address recipient, uint amount) external returns (bool);\n\n    function allowance(address owner, address spender) external view returns (uint);\n\n    function approve(address spender, uint amount) external returns (bool);\n\n    function transferFrom(\n        address sender,\n        address recipient,\n        uint amount\n    ) external returns (bool);\n\n    event Transfer(address indexed from, address indexed to, uint value);\n    event Approval(address indexed owner, address indexed spender, uint value);\n}\n",
  "sourcePath": "/Users/yusufhansck/Desktop/development/Solidity/KakashiSwap/KakashiStakev2/contracts/SimpleStorage.sol",
  "compiler": {
    "name": "solc",
    "version": "0.8.0+commit.c7dfd78e.Emscripten.clang"
  },
  "schemaVersion": "3.4.10",
  "updatedAt": "2022-11-13T07:12:58.064Z",
  "devdoc": {
    "kind": "dev",
    "methods": {},
    "version": 1
  },
  "userdoc": {
    "kind": "user",
    "methods": {},
    "version": 1
  }
}