{
  "contractName": "StakingContract",
  "abi": [
    {
      "inputs": [],
      "stateMutability": "nonpayable",
      "type": "constructor"
    },
    {
      "inputs": [
        {
          "internalType": "address",
          "name": "",
          "type": "address"
        }
      ],
      "name": "balanceOf",
      "outputs": [
        {
          "internalType": "uint256",
          "name": "",
          "type": "uint256"
        }
      ],
      "stateMutability": "view",
      "type": "function",
      "constant": true
    },
    {
      "inputs": [
        {
          "internalType": "address",
          "name": "",
          "type": "address"
        }
      ],
      "name": "durations",
      "outputs": [
        {
          "internalType": "uint256",
          "name": "",
          "type": "uint256"
        }
      ],
      "stateMutability": "view",
      "type": "function",
      "constant": true
    },
    {
      "inputs": [],
      "name": "owner",
      "outputs": [
        {
          "internalType": "address",
          "name": "",
          "type": "address"
        }
      ],
      "stateMutability": "view",
      "type": "function",
      "constant": true
    },
    {
      "inputs": [],
      "name": "rewardPerToken",
      "outputs": [
        {
          "internalType": "uint256",
          "name": "",
          "type": "uint256"
        }
      ],
      "stateMutability": "view",
      "type": "function",
      "constant": true
    },
    {
      "inputs": [
        {
          "internalType": "address",
          "name": "",
          "type": "address"
        }
      ],
      "name": "rewards",
      "outputs": [
        {
          "internalType": "uint256",
          "name": "",
          "type": "uint256"
        }
      ],
      "stateMutability": "view",
      "type": "function",
      "constant": true
    },
    {
      "inputs": [],
      "name": "rewardsToken",
      "outputs": [
        {
          "internalType": "contract IERC20",
          "name": "",
          "type": "address"
        }
      ],
      "stateMutability": "view",
      "type": "function",
      "constant": true
    },
    {
      "inputs": [],
      "name": "stakingToken",
      "outputs": [
        {
          "internalType": "contract IERC20",
          "name": "",
          "type": "address"
        }
      ],
      "stateMutability": "view",
      "type": "function",
      "constant": true
    },
    {
      "inputs": [
        {
          "internalType": "uint256",
          "name": "_amount",
          "type": "uint256"
        }
      ],
      "name": "stake",
      "outputs": [],
      "stateMutability": "nonpayable",
      "type": "function"
    },
    {
      "inputs": [
        {
          "internalType": "uint256",
          "name": "_amount",
          "type": "uint256"
        }
      ],
      "name": "withdraw",
      "outputs": [],
      "stateMutability": "nonpayable",
      "type": "function"
    },
    {
      "inputs": [],
      "name": "getReward",
      "outputs": [],
      "stateMutability": "nonpayable",
      "type": "function"
    }
  ],
  "bytecode": "0x60c060405234801561001057600080fd5b50336000806101000a81548173ffffffffffffffffffffffffffffffffffffffff021916908373ffffffffffffffffffffffffffffffffffffffff16021790555073ed24fc36d5ee211ea25a80239fb8c4cfd80f12ee73ffffffffffffffffffffffffffffffffffffffff1660808173ffffffffffffffffffffffffffffffffffffffff168152505073c160f01f157bd24b4673cff1c1b088bc8ef946ca73ffffffffffffffffffffffffffffffffffffffff1660a08173ffffffffffffffffffffffffffffffffffffffff168152505060805160a051610e9361011b600039600081816105d701526108d80152600081816103c50152818161069201526108160152610e936000f3fe608060405234801561001057600080fd5b506004361061009e5760003560e01c80638da5cb5b116100665780638da5cb5b14610147578063a694fc3a14610165578063af6bd8ce14610181578063cd3daf9d146101b1578063d1af0c7d146101cf5761009e565b80630700037d146100a35780632e1a7d4d146100d35780633d18b912146100ef57806370a08231146100f957806372f702f314610129575b600080fd5b6100bd60048036038101906100b89190610a0c565b6101ed565b6040516100ca9190610a52565b60405180910390f35b6100ed60048036038101906100e89190610a99565b610205565b005b6100f7610466565b005b610113600480360381019061010e9190610a0c565b610678565b6040516101209190610a52565b60405180910390f35b610131610690565b60405161013e9190610b25565b60405180910390f35b61014f6106b4565b60405161015c9190610b4f565b60405180910390f35b61017f600480360381019061017a9190610a99565b6106d8565b005b61019b60048036038101906101969190610a0c565b6108b9565b6040516101a89190610a52565b60405180910390f35b6101b96108d1565b6040516101c69190610a52565b60405180910390f35b6101d76108d6565b6040516101e49190610b25565b60405180910390f35b60036020528060005260406000206000915090505481565b3361020f816108fa565b600360008373ffffffffffffffffffffffffffffffffffffffff1673ffffffffffffffffffffffffffffffffffffffff168152602001908152602001600020600082825461025d9190610b99565b9250508190555042600260008373ffffffffffffffffffffffffffffffffffffffff1673ffffffffffffffffffffffffffffffffffffffff16815260200190815260200160002081905550600082116102eb576040517f08c379a00000000000000000000000000000000000000000000000000000000081526004016102e290610c2a565b60405180910390fd5b6000600160003373ffffffffffffffffffffffffffffffffffffffff1673ffffffffffffffffffffffffffffffffffffffff168152602001908152602001600020541161036d576040517f08c379a000000000000000000000000000000000000000000000000000000000815260040161036490610c96565b60405180910390fd5b81600160003373ffffffffffffffffffffffffffffffffffffffff1673ffffffffffffffffffffffffffffffffffffffff16815260200190815260200160002060008282546103bc9190610cb6565b925050819055507f000000000000000000000000000000000000000000000000000000000000000073ffffffffffffffffffffffffffffffffffffffff1663a9059cbb33846040518363ffffffff1660e01b815260040161041e929190610cea565b6020604051808303816000875af115801561043d573d6000803e3d6000fd5b505050506040513d601f19601f820116820180604052508101906104619190610d4b565b505050565b33610470816108fa565b600360008373ffffffffffffffffffffffffffffffffffffffff1673ffffffffffffffffffffffffffffffffffffffff16815260200190815260200160002060008282546104be9190610b99565b9250508190555042600260008373ffffffffffffffffffffffffffffffffffffffff1673ffffffffffffffffffffffffffffffffffffffff168152602001908152602001600020819055506000600360003373ffffffffffffffffffffffffffffffffffffffff1673ffffffffffffffffffffffffffffffffffffffff16815260200190815260200160002054905060008111610590576040517f08c379a000000000000000000000000000000000000000000000000000000000815260040161058790610dc4565b60405180910390fd5b6000600360003373ffffffffffffffffffffffffffffffffffffffff1673ffffffffffffffffffffffffffffffffffffffff168152602001908152602001600020819055507f000000000000000000000000000000000000000000000000000000000000000073ffffffffffffffffffffffffffffffffffffffff1663a9059cbb33836040518363ffffffff1660e01b8152600401610630929190610cea565b6020604051808303816000875af115801561064f573d6000803e3d6000fd5b505050506040513d601f19601f820116820180604052508101906106739190610d4b565b505050565b60016020528060005260406000206000915090505481565b7f000000000000000000000000000000000000000000000000000000000000000081565b60008054906101000a900473ffffffffffffffffffffffffffffffffffffffff1681565b336106e2816108fa565b600360008373ffffffffffffffffffffffffffffffffffffffff1673ffffffffffffffffffffffffffffffffffffffff16815260200190815260200160002060008282546107309190610b99565b9250508190555042600260008373ffffffffffffffffffffffffffffffffffffffff1673ffffffffffffffffffffffffffffffffffffffff16815260200190815260200160002081905550600082116107be576040517f08c379a00000000000000000000000000000000000000000000000000000000081526004016107b590610c2a565b60405180910390fd5b81600160003373ffffffffffffffffffffffffffffffffffffffff1673ffffffffffffffffffffffffffffffffffffffff168152602001908152602001600020600082825461080d9190610b99565b925050819055507f000000000000000000000000000000000000000000000000000000000000000073ffffffffffffffffffffffffffffffffffffffff166323b872dd3330856040518463ffffffff1660e01b815260040161087193929190610de4565b6020604051808303816000875af1158015610890573d6000803e3d6000fd5b505050506040513d601f19601f820116820180604052508101906108b49190610d4b565b505050565b60026020528060005260406000206000915090505481565b600181565b7f000000000000000000000000000000000000000000000000000000000000000081565b600080600260008473ffffffffffffffffffffffffffffffffffffffff1673ffffffffffffffffffffffffffffffffffffffff16815260200190815260200160002054426109489190610cb6565b9050600181600160008673ffffffffffffffffffffffffffffffffffffffff1673ffffffffffffffffffffffffffffffffffffffff168152602001908152602001600020546109979190610e1b565b6109a19190610e1b565b915050919050565b600080fd5b600073ffffffffffffffffffffffffffffffffffffffff82169050919050565b60006109d9826109ae565b9050919050565b6109e9816109ce565b81146109f457600080fd5b50565b600081359050610a06816109e0565b92915050565b600060208284031215610a2257610a216109a9565b5b6000610a30848285016109f7565b91505092915050565b6000819050919050565b610a4c81610a39565b82525050565b6000602082019050610a676000830184610a43565b92915050565b610a7681610a39565b8114610a8157600080fd5b50565b600081359050610a9381610a6d565b92915050565b600060208284031215610aaf57610aae6109a9565b5b6000610abd84828501610a84565b91505092915050565b6000819050919050565b6000610aeb610ae6610ae1846109ae565b610ac6565b6109ae565b9050919050565b6000610afd82610ad0565b9050919050565b6000610b0f82610af2565b9050919050565b610b1f81610b04565b82525050565b6000602082019050610b3a6000830184610b16565b92915050565b610b49816109ce565b82525050565b6000602082019050610b646000830184610b40565b92915050565b7f4e487b7100000000000000000000000000000000000000000000000000000000600052601160045260246000fd5b6000610ba482610a39565b9150610baf83610a39565b9250828201905080821115610bc757610bc6610b6a565b5b92915050565b600082825260208201905092915050565b7f616d6f756e74203d203000000000000000000000000000000000000000000000600082015250565b6000610c14600a83610bcd565b9150610c1f82610bde565b602082019050919050565b60006020820190508181036000830152610c4381610c07565b9050919050565b7f596f75722062616c616e6365203d203000000000000000000000000000000000600082015250565b6000610c80601083610bcd565b9150610c8b82610c4a565b602082019050919050565b60006020820190508181036000830152610caf81610c73565b9050919050565b6000610cc182610a39565b9150610ccc83610a39565b9250828203905081811115610ce457610ce3610b6a565b5b92915050565b6000604082019050610cff6000830185610b40565b610d0c6020830184610a43565b9392505050565b60008115159050919050565b610d2881610d13565b8114610d3357600080fd5b50565b600081519050610d4581610d1f565b92915050565b600060208284031215610d6157610d606109a9565b5b6000610d6f84828501610d36565b91505092915050565b7f596f7520646f6e74206861766520726577617264730000000000000000000000600082015250565b6000610dae601583610bcd565b9150610db982610d78565b602082019050919050565b60006020820190508181036000830152610ddd81610da1565b9050919050565b6000606082019050610df96000830186610b40565b610e066020830185610b40565b610e136040830184610a43565b949350505050565b6000610e2682610a39565b9150610e3183610a39565b9250828202610e3f81610a39565b91508282048414831517610e5657610e55610b6a565b5b509291505056fea2646970667358221220fd1fc52afb18181007628a819cef8be81642608c0583fb05afe56f7872f21c6a64736f6c63430008110033",
  "immutableReferences": {
    "37": [
      {
        "length": 32,
        "start": 965
      },
      {
        "length": 32,
        "start": 1682
      },
      {
        "length": 32,
        "start": 2070
      }
    ],
    "40": [
      {
        "length": 32,
        "start": 1495
      },
      {
        "length": 32,
        "start": 2264
      }
    ]
  },
  "source": "// SPDX-License-Identifier: MIT\npragma solidity ^0.8.0;\n\n\ncontract StakingContract {\n    IERC20 public immutable stakingToken;\n    IERC20 public immutable rewardsToken;\n\n    address public owner;\n\n    uint constant public rewardPerToken = 1;\n\n    mapping(address => uint) public balanceOf;\n\n    mapping(address => uint) public durations;\n\n    mapping(address => uint) public rewards;\n\n    constructor() {\n        owner = msg.sender;\n        stakingToken = IERC20(0xeD24FC36d5Ee211Ea25A80239Fb8C4Cfd80f12Ee); //BUSD\n        rewardsToken = IERC20(0xC160F01f157Bd24B4673CfF1C1B088bC8eF946cA); //KakashiToken\n    }\n\n    modifier updateReward(address _account) {\n        rewards[_account] += calculateReward(_account);\n        durations[_account] = block.timestamp;\n        _;\n    }\n\n    function calculateReward(address _account) view internal returns(uint){\n        uint duration = block.timestamp - durations[_account];\n        return balanceOf[_account] * duration * rewardPerToken;\n    }\n\n    function stake(uint _amount) external updateReward(msg.sender){\n        require(_amount > 0, \"amount = 0\");\n        balanceOf[msg.sender] += _amount;\n        stakingToken.transferFrom(msg.sender, address(this), _amount);\n    }\n\n    function withdraw(uint _amount) external updateReward(msg.sender){\n        require(_amount > 0, \"amount = 0\");\n        require(balanceOf[msg.sender] > 0, \"Your balance = 0\");\n        balanceOf[msg.sender] -= _amount;\n        stakingToken.transfer(msg.sender, _amount);\n    }\n\n    function getReward() external updateReward(msg.sender){\n        uint reward = rewards[msg.sender];\n        require(reward > 0, \"You dont have rewards\");\n        rewards[msg.sender] = 0;\n        rewardsToken.transfer(msg.sender, reward);\n    }\n}\n\n\ninterface IERC20 {\n    function totalSupply() external view returns (uint);\n\n    function balanceOf(address account) external view returns (uint);\n\n    function transfer(address recipient, uint amount) external returns (bool);\n\n    function allowance(address owner, address spender) external view returns (uint);\n\n    function approve(address spender, uint amount) external returns (bool);\n\n    function transferFrom(\n        address sender,\n        address recipient,\n        uint amount\n    ) external returns (bool);\n\n    event Transfer(address indexed from, address indexed to, uint value);\n    event Approval(address indexed owner, address indexed spender, uint value);\n}\n",
  "sourcePath": "/Users/yusufhansck/Desktop/development/Solidity/KakashiSwap/KakashiStake/contracts/StakingContract.sol",
  "compiler": {
    "name": "solc",
    "version": "0.8.17+commit.8df45f5f.Emscripten.clang"
  },
  "schemaVersion": "3.4.10",
  "updatedAt": "2022-12-02T07:07:41.619Z",
  "networkType": "ethereum",
  "devdoc": {
    "kind": "dev",
    "methods": {},
    "version": 1
  },
  "userdoc": {
    "kind": "user",
    "methods": {},
    "version": 1
  }
}